:020000040800F2
:10000000D81500209D010008172D00083128000890
:10001000152D00088D090008393300080000000084
:1000200000000000000000000000000005010008C2
:10003000190A000800000000490100087D2E000890
:10004000B7010008B7010008B7010008B7010008B0
:10005000B7010008B7010008B7010008B7010008A0
:10006000B7010008B7010008B7010008B701000890
:10007000B7010008B7010008B7010008B701000880
:10008000B7010008B7010008AD080008B701000873
:10009000B7010008B7010008B7010008B701000860
:1000A000B7010008252F0008B7010008B7010008B4
:1000B000312F00083D2F0008B7010008B7010008E4
:1000C000B7010008B7010008B7010008B701000830
:1000D000B70100082D330008B7010008B701000878
:1000E000B7010008B7010008B7010008DFF810D019
:1000F00000F09EFB0048004761390008AFF3008024
:10010000D8150020224B19680868B0E8F00F80F37A
:100110000988BFF36F8F4FF0000080F311884EF015
:100120000D0E70470000000006480068006880F36C
:10013000088862B661B6BFF34F8FBFF36F8F00DFE1
:1001400000BF00BF08ED00E0EFF30980BFF36F8F41
:100150000F4B1A6820E9F00F106008B54FF05000FF
:1001600080F31188BFF34F8FBFF36F8F04F06AFAEB
:100170004FF0000080F31188BDE808401968086856
:10018000B0E8F00F80F30988BFF36F8F704700BFAE
:1001900088010020EFF30580704700000648804783
:1001A00006480047FEE7FEE7FEE7FEE7FEE7FEE75C
:1001B000FEE7FEE7FEE7FEE7212F0008ED0000085E
:1001C000202A04DB203A21FA02F00021704721FAAC
:1001D00002F3D040C2F12002914008431946704713
:1001E00040EA01039B0703D009E008C9121F08C0B9
:1001F000042AFAD203E011F8013B00F8013B521E39
:10020000F9D27047D2B201E000F8012B491EFBD2AF
:1002100070470022F6E710B513460A460446194611
:10022000FFF7F0FF204610BD30B480EA010202F073
:10023000004530F0004221F0004013D090B1C30DD2
:10024000D40DC2F31601C0F31600E41A41F4000104
:1002500040F400027D34914201D3641C00E0490067
:10026000002C02DA30BC002070474FF4000000235D
:10027000914201D3891A034340084FEA4101F7D163
:1002800051B1914202D14FF0004105E002D24FF04E
:10029000010101E06FF0010103EBC450284430BCC0
:1002A00000F07FB92DE9FE4F804681EA0300C00FC0
:1002B0000C46009021F0004123F00045B8EB02000D
:1002C000A94105D24046214690461C460B460246AF
:1002D00023F00040104347D0270DC7F30A00C3F3B3
:1002E0000A510290401A019040286BDAC3F31300C0
:1002F00040F4801B0098924620B10023D2EB030A01
:1003000063EB0B0B01985946C0F14002504600F0D8
:1003100027F906460D4650465946019A00F02FF936
:1003200010EB08006141002487EA115284EAE77368
:100330001A4340D0009A62B3019A012A4FEA075249
:1003400015DC001B61EB02014FF0004202EA07528C
:10035000CDE90042001C41F5801132462B4600F0E9
:1003600066F903B0BDE8F08F40462146F9E7001B6F
:1003700061EB0201001C41F5801300185B4120185D
:10038000A2F5001747EB030140EAD570B6196D419D
:1003900011E06D084FEA360645EAC0754FEA07528C
:1003A000001B61EB0201001C41F5801149084FEA76
:1003B00030000019514132462B4603B0BDE8F04FE2
:1003C00000F026B90098012240000023D0EB020281
:1003D00063EBE073009821464FEAE074B8EB00004D
:1003E00061EB0401E9E783F000435BE781F0004142
:1003F00058E72DE9F04D81EA030404F0004B21F0A9
:10040000004514464FF0000A23F0004150EA05026F
:1004100020D054EA01021DD0C5F30A570246C5F3A5
:100420001303C1F31300C1F30A5640F4801543F4DB
:100430008013A7EB0608101BD64608F2FD3873EBB5
:10044000050002D308F1010801E092185B41B8F100
:10045000000F03DA00200146BDE8F08D00204FF4C4
:100460008011064684460EE0171B73EB050705D383
:10047000121B63EB050306434CEA010C49084FEAE3
:10048000300092185B4150EA0107EDD152EA0300B7
:1004900012D082EA040083EA0501084305D0101B4C
:1004A000AB4106D20122002306E000224FF00043B8
:1004B00002E06FF0010253101AEB06004CEB0851FA
:1004C00010EB0A0041EB0B01BDE8F04D00F0A0B8C5
:1004D00096230022114600F06DB820F00040C10DB7
:1004E000C0F3160040F400007F2901DA00207047B5
:1004F000962903DCC1F19601C840704796398840BF
:10050000704700F0004230F000400AD0C10D01F504
:100510006071C0F3160042EA0151C208400711435E
:10052000704700200146704701F0004330B421F0CD
:10053000004150EA010206D00A0DA2F56072C1F333
:100540001301002A02DC30BC00207047440F44EA4B
:10055000C104C100E01830BC00EBC25000F021B86B
:10056000202A04DB203A00FA02F100207047914073
:10057000C2F1200320FA03F3194390407047202A68
:1005800006DBCB17203A41FA02F043EAE07306E0BB
:1005900041FA02F3D040C2F12002914008431946CB
:1005A00070470029A8BF7047401C490008BF20F0D1
:1005B0000100704710B4B0FA80FC00FA0CF050EA69
:1005C000010404BF10BC704749B1CCF1200421FAEA
:1005D00004F411FA0CF118BF012121430843A3EBE5
:1005E0000C01CB1D4FEA00614FEA102042BF0020F2
:1005F00010BC704700EBC35010440029A4BF10BCCE
:100600007047401C490008BF20F0010010BC704733
:1006100010B5141E73F1000408DA401C41F100010A
:1006200092185B411A4301D120F0010010BD2DE961
:10063000F04D92469B4611B1B1FA81F202E0B0FA58
:1006400080F220329046FFF78BFF04460F4640EAC7
:100650000A0041EA0B0153465A46084313D011469B
:1006600053EA010019D0C8F140025046FFF7A8FD37
:1006700005460E46504659464246FFF771FF08436D
:1006800005D0012004E020463946BDE8F08D002069
:10069000054346EAE0762C4337430A986305E40AAB
:1006A000A0EB08000022FD0A44EA47540A3002D5B4
:1006B00000200146E9E7010510196941DDE9084517
:1006C00000196941BDE8F04DA2E72DE9FE4F81EA2E
:1006D000030404F0004421F0004100944FF0000BAB
:1006E00023F0004350EA01045ED052EA03045BD0D9
:1006F000C3F30A54C1F30A552C44A4F2F334019411
:10070000A0FB0254C1F3130141F48011C3F313039E
:1007100043F4801301FB024400FB034E840A970A52
:1007200044EA815447EA8357A4FB076802958D0A7F
:1007300005FB07854FEA932C04FB0C542705029D0B
:100740004FEA065847EA1637B5EB08056EEB070C7B
:10075000870E920E47EA811742EA8312A7FB020135
:10076000B6EB0B0164EB00042B0D43EA0C335E186F
:1007700044EB1C50DA465146E7FB0201C5F3130473
:100780004FEA0B3343EA14534FEA0432019C43EA25
:100790000603A4F10C040294009CCDE900B4FFF719
:1007A00046FF03B0BDE8F08F00200146F9E770B5C1
:1007B00021F0004303430CD0C1F30A550024D5EBCC
:1007C000040564EB0403D617AD1AB34102DB002025
:1007D000014670BD201841EB025170BD0EB5C10F2E
:1007E00080EAE0700844CA07002140F233438DE8F4
:1007F0000E000A460B46FFF71AFF03B000BD0000CB
:1008000030B5041E71F1000404DB4FF00044404297
:1008100064EB0101141E73F1000405DB1C464FF06C
:100820000043524263EB04038B4208BF824230BD57
:10083000064C074D06E0E06840F0010394E807002D
:1008400098471034AC42F6D3FFF754FCFC51000833
:100850001C52000870B58C1810F8015B15F00703E6
:1008600001D110F8013B2A1106D110F8012B03E049
:1008700010F8016B01F8016B5B1EF9D12B0705D451
:100880000023521E0DD401F8013BFAE710F8013B9A
:10089000CB1A921C03E013F8015B01F8015B521EB6
:1008A000F9D5A142D8D3002070BD0000014800F066
:1008B000BABB00009803002070B504460068816848
:1008C000C943C90717D1816821F00101816000F097
:1008D000B1FE05460AE000BF00F0ACFE401B022856
:1008E00004D920688068C043C00706D020688068AB
:1008F000C043C007F0D0002070BDA06A40F01000D7
:10090000A062E06A40F00100E062012070BD0000DA
:10091000F8B500260446009600688168C943C907F7
:100920002DD0816841F001018160164816490068A8
:10093000B0FBF1F000E0401E00900028FBD100F079
:1009400079FE054616E000BF00F074FE401B022849
:1009500010D920688068C043C0070BD0A06A40F05F
:100960001000A062E06A40F00100E06284F82460B8
:100970000120F8BD20688068C043C007E4D1002092
:10098000F8BD00008401002040420F00FEE7000097
:1009900038B5204CFF208DF800002069002830D0A9
:1009A000002103F07DFE4FF0FF32150D49282FD0B6
:1009B00007DC09282AD0122824D0242821D101209C
:1009C00014E0922820D0B0F5927F0ED0A0F50070F0
:1009D000363816D15FF007008DF800000023694615
:1009E000E06803F08DFF002108E002208DF8000090
:1009F00000236946E06803F083FF2946206903F07D
:100A00004FFE38BD0320F1E70420EFE70520E3E7C0
:100A10000620E1E720000020704700001E4910B5C5
:100A20000888401C80B20880042801D30020088078
:100A30001A48026842F4704202600C881749164A4C
:100A40000C394FF6FF73921C8CB1012C16D0022C7E
:100A50001BD0032C0AD103604FF400434B610168A3
:100A600092F8002042F47F421140016010BD036003
:100A70004FF480534B610168D278F3E703604FF481
:100A800000534B6101689278ECE703604FF48043B8
:100A90004B6101685278E5E7000000200C0C014032
:100AA00072B6FEE710B541F2883002F0C5FF074983
:100AB0008878012804D1CA78032A01D100228A71DA
:100AC000C978BDE8104002F051B9000020000020B4
:100AD00010B501225103074800F0A7FD0648012187
:100AE0004171002181710321BDE81040012002F015
:100AF0003DB90000001001402000002010B5012287
:100B00005103054800F091FD044901208871BDE8BA
:100B10001040042102F02AB90010014020000020FA
:100B200010B500224FF40051044800F07EFD022170
:100B3000BDE81040012002F019B90000001001408A
:100B400010B500224FF40051054800F06EFD06215B
:100B5000022002F00BF903490120C87110BD00000A
:100B6000001001402000002010B50122510304486C
:100B700000F05BFD0721BDE81040022002F0F6B84E
:100B80000010014010B501225103044800F04DFD52
:100B90000821BDE81040022002F0E8B80010014032
:100BA00010B501225103044800F03FFD0521BDE8C6
:100BB0001040022002F0DAB80010014010B541F2F6
:100BC000883002F039FF07498878012804D1CA78B3
:100BD000032A01D100228A71C978BDE8104002F0D1
:100BE000C5B800002000002010B5012251030748BD
:100BF00000F01BFD0648017881704178C17000212A
:100C0000BDE81040084602F0B1B8000000100140F5
:100C10002000002010B501225103084800F005FD16
:100C20000748017881704178C170012181710021EC
:100C3000BDE81040084602F099B8000000100140DD
:100C40002000002010B501225103074800F0EDFC00
:100C50000648017881704178C1700021BDE81040DC
:100C6000084602F083B80000001001402000002078
:100C700004480179491C49B20171642901DD002150
:100C8000017170472000002004494879032801D2EF
:100C9000401C00E001204871704700002000002047
:100CA00000224FF40051014800F0BFBC0010014089
:100CB00001490020C87170472000002004480179D4
:100CC000491C49B20171642901DD0021017170479D
:100CD0002000002000224FF40051014800F0A5BC84
:100CE0000010014001490020C87170472000002019
:100CF00004480179491E49B20171002901DA6421D1
:100D0000017170472000002004494879012802D071
:100D1000401E487170470320FBE7000020000020C0
:100D200001225103014800F080BC00000010014086
:100D300001490120C87170472000002010B5034C04
:100D40006069FFF7CAFBA06110BD00002000002011
:100D50000149002088717047200000200448017973
:100D6000491E49B20171002901DA642101717047FD
:100D70002000002001225103014800F056BC000071
:100D80000010014001490120C87170472000002077
:100D900010B5034C6069FFF7A0FBA06110BD000017
:100DA00020000020014901208871704720000020A8
:100DB00010B501225103044800F037FC0521BDE8BD
:100DC0001040022001F0D2BF00100140F8B500250C
:100DD0000446009590F82400012808D0012084F8EA
:100DE00024002046FFF768FD060002D053E00220F1
:100DF000F8BDA06A20F4885040F00200A0620220F2
:100E000000F0E2FC26490968B1FBF0F0400000E088
:100E1000401E00900028FBD12046FFF779FD206896
:100E2000816841F00801816000F004FC074608E099
:100E300000F000FCC01B0A2803D920688068000766
:100E400015D4206880680007F2D42068816841F0DA
:100E50000401816000F0EEFB074612E000F0EAFBBF
:100E6000C01B0A280DD920688068400709D5A06AF0
:100E700020F0020040F01000A06284F8245001200D
:100E8000F8BD206880684007E8D4A06A20F002001E
:100E900040F00100A06284F824503046F8BD000004
:100EA0008401002070470000F8B50024009490F8F9
:100EB00024202546012A12D0012280F824204A68E5
:100EC0001F23072A0DD20668776B521E02EB82029F
:100ED00093409F430B6893401F43776319E00220C0
:100EE000F8BD06680D2A0AD2376BD21F02EB8202C8
:100EF00093409F430B6893401F43376309E0F76AB1
:100F00000D3A02EB820293409F430B6893401F43CC
:100F1000F7620A68072306680A2A0AD3F7680A3ABA
:100F200002EB420293409F438B6893401F43F7605C
:100F300008E0376902EB420293409F438B6893407D
:100F40001F4337610A68102A01D0112A20D1124BA1
:100F500002689A4217D193681B0219D4936843F42C
:100F6000000393600968102912D10C490C4A0968E2
:100F7000B1FBF2F101EB8101490000E0491E009153
:100F80000029FBD104E0816A41F020018162012443
:100F900080F824502046F8BD002401408401002040
:100FA00040420F0010B500F03BF842F2107141438F
:100FB000A0F6FF704042B1FBF0F0FFF789FA11494B
:100FC000FFF732F9FFF79DFA02F01CFB00220E4BEF
:100FD000FFF70FFA0D4A0E4BFFF764F902460B4676
:100FE00000200C49FFF705FAFFF79EFAFFF789FA90
:100FF0004FF06632084BFFF7F6F9FFF795FA07490D
:10100000486110BD00401C4600DCAE4083DBB5DC0F
:10101000E1796B3F0000F03F661271402000002034
:101020000068C06C704710B50446006841688906C6
:1010300026D50168890723D5A16AC90603D4A16A08
:1010400041F40071A1628168C1F34241072910D1C6
:10105000217B71B9416821F020014160A06A20F430
:101060008070A062A06AC00403D4A06A40F00100AE
:10107000A0622046FFF796FF21686FF0120008601B
:101080002068416809062ED5016849072BD5A16A59
:10109000C90603D4A16A41F40051A1628168C1F379
:1010A0000231072909D04168490515D48168C1F387
:1010B0004241072910D1217B71B9416821F080019B
:1010C0004160A06A20F48050A062A06AC00503D4E9
:1010D000A06A40F00100A0622046FFF7E3FE21680D
:1010E0006FF00C0008602068416849060DD5006863
:1010F000C0070AD0A06A40F48030A062204600F009
:1011000093F821686FF00100086010BD2DE9F041EF
:101110004FF0000704003D467ED0A06A002628B9A3
:10112000E66284F82460204600F080F82046FFF74D
:10113000C3FBA16AC90600D420B1A06A40F0100028
:10114000A06269E0A16A21F4885141F00201A16224
:101150006268E169237B0A4347EA43010A43A168C5
:101160004FF48077B94209D0012907D05FF0000120
:1011700094F814C0BCF1010F02D00AE03946F7E739
:10118000F3B1A36A43F02003A362E36A43F00103CF
:10119000E3622368D3F804C02CF4694C4CEA010CD8
:1011A000C3F804C021688B68DFF870C003EA0C0341
:1011B00013438B60A168B9420BD0012909D00CE020
:1011C000DFF85CC0A3690CEB43330B4343F40061CD
:1011D000DFE7218A0D05A5F580152168CB6A23F488
:1011E00070032B43CB62216889680E4B19409142F2
:1011F00008D1E662A16A21F0020141F00101A16279
:10120000BDE8F081A06A20F0020040F01000A0626A
:10121000E06A40F00100E0620120F1E7FDF7E1FF44
:1012200000E0FFFFFE0E1FFF7047000000B585B015
:1012300000210091019102910391006812498842B6
:1012400020D11248816941F400718161816901F402
:1012500000710491816941F00401816180696946EE
:1012600000F0040004900220009003200190084840
:1012700000F0E6F800220521122000F073FA122097
:1012800000F062FA05B000BD0024014000100240E9
:101290000008014070B5044690F8240001280DD0E4
:1012A000012084F824002046FFF732FB02004FF0B3
:1012B000000005D084F82400104670BD022070BDE7
:1012C000A16A40F60163994341F48071A162224D05
:1012D00023682249AB4218D10E6816F4702F14D03F
:1012E000A66A46F48016A6620E68760505D5A66A3B
:1012F00026F4005646F48056A662A66AF6040AD57D
:10130000E66A26F00606E66206E0A66A26F480167D
:10131000A6625E68E9E7E06284F824006FF00200EC
:1013200018602068436843F02003436020688368A6
:10133000C3F34243072B05D1A84208D1096811F431
:10134000702F04D0816841F480118160B4E7816816
:1013500041F4A001F9E70000002801400424014005
:1013600010B590F821100022022905D004218163D4
:1013700080F82020012010BD01680B6823F00E03C7
:101380000B6001680B6823F001030B6090F840309C
:10139000C46B012101FA03F3636080F8211080F827
:1013A0002020104610BD000010B590F82110002438
:1013B000022903D00421816301243DE001680A6809
:1013C00022F00E020A6001680A6822F001020A6037
:1013D0001A4A0168914201D1012121E0174A1432D1
:1013E000914201D110211BE0144A2832914201D1CF
:1013F000891515E0114A3C32914201D189140FE060
:101400000E4A5032914202D14FF4803108E00B4A2B
:101410006432914202D14FF4801101E04FF08071AB
:10142000064A083A5160012180F82110002180F815
:101430002010416B01B18847204610BD08000240D2
:101440002DE9F84FDFF8B891002409F1040A0AF1F8
:10145000040B23460F270BF1040EC9E00125A5401C
:101460002A40AA427DD1674ED1F804C0ACEB0608F1
:10147000B44532D014DCBCF1030F3AD009DCBCF126
:10148000000F2AD0BCF1010F1CD0BCF1020F31D1EA
:101490001DE0BCF1110F17D0BCF1120F2AD119E0D9
:1014A000B8F5881F19D006DCB8F5803F15D0B8F51F
:1014B000801F1FD111E0B8F5001F0ED0B8F5041F32
:1014C00018D10AE0CB6815E0CB681B1D12E0CB6891
:1014D00008330FE0CB680C330CE08B682BB1012B89
:1014E0004FF0080303D0456104E0042302E00561E6
:1014F00000E00023FF2A01D8064601E000F10406BF
:101500004FEA840501D9A5F12005D6F8008007FA35
:1015100005FC28EA0C0803FA05F548EA0508C6F8B0
:1015200000804D68ED0062D5374DAE6946F001068A
:10153000AE61AD6924F0030605F001050095334D59
:1015400006EB050CDCF80850A607360F07FA06F87C
:1015500025EA0805DFF8B880404503D14FF00008C0
:1015600017E044E0DFF8AC80404502D14FF00108BD
:101570000FE0DFF8A480404502D14FF0020808E0F8
:10158000DFF89880404502D14FF0030801E04FF0AA
:10159000040808FA06F848EA0508CCF808804D68FF
:1015A000D9F80060ED034D4601D5164300E096439F
:1015B0002E604D68DAF80060AD03554601D516433C
:1015C00000E096432E604D68DBF80060ED025D465A
:1015D00001D5164300E096432E604D68DEF80060AA
:1015E000AD02754601D5164300E096432E60641C9B
:1015F0000D682A46E5407FF431AFBDE8F88F000062
:1016000000040140000011100010024000000140E1
:1016100000080140000C014000100140001401408E
:101620008068084000D0012070470AB1016170470E
:101630000904FBE70148806870470000780100203A
:101640000248816802781144816070477801002067
:10165000074810B5016841F010010160032000F057
:10166000A1F80F2000F006F800F04AF8002010BDA5
:101670000020024030B505461C4887B0816941F41E
:1016800000618161806906A900F40060009001A8F2
:1016900000F00AFA00F038FA1549164AB0FBF1F1E9
:1016A0001548491E0260416040F2E7320021C0E95E
:1016B00003218160816100F033FC040012D10E48E7
:1016C00000F08CFC04000DD1192000F03DF8102D25
:1016D00007D200222946192000F044F80748056087
:1016E00000E0012407B0204630BD00000010024099
:1016F00040420F00002C01409C0400207C0100208F
:101700000F4808B5816941F001018161816901F0EB
:1017100001010091C16941F08051C161C06900229D
:1017200000F0805000900F21901E00F01BF805483B
:10173000416821F0E06141F00071416008BD0000A6
:101740000010024000000140002809DB00F01F02E9
:10175000012191404009800000F1E020C0F8001113
:1017600070470000F0B40E4B1B680C46C3F3022315
:10177000C3F10705042D00D90425191D072901D23D
:10178000002300E0DB1E012606FA05F1491E214078
:1017900099409E40761E16403143F0BC01F0CDBD0D
:1017A0000CED00E0064900F0070208684FF6FF0361
:1017B000184040EA0220034A1043086070470000C6
:1017C0000CED00E00000FA0510B529A401461DCC7F
:1017D00086B08DE81D002AA02A4C006804900020E5
:1017E000012923D002293AD010291DD1616822682D
:1017F000D20119D5C1F38342C9031DF8020009D5EE
:10180000616804AAC1F34041515C1F4AB2FBF1F187
:10181000484301E01D4948436168490204D440003F
:101820005FF00301B0FBF1F006B010BD226AC2F315
:101830000121012903D1920701D5C803F4E7022948
:1018400005D1626A920702D549F64040ECE70329C8
:10185000EAD121688903E7D54FF22440E4E700F09C
:1018600053F96168C1F38131491C4900DAE700008E
:1018700002030405060708090A0B0C0D0E0F1010D1
:10188000010200000010024000127A0000093D0031
:101890002DE9F84305460078354CC00754D0E0697F
:1018A0000026C00008D4E06940F08050E061E069A3
:1018B000012600F0805000902E480168C90512D41E
:1018C0000168804641F480710160FFF7B3FE07466E
:1018D00005E000BFFFF7AEFEC01B642823D8D8F890
:1018E0000000C005F6D5206A10F4407021D0A98808
:1018F00001F4407181421CD0206A1F49012220F46A
:1019000040700A6000220A602062C00711D0FFF711
:1019100091FE074641F2883808E000BFFFF78AFED3
:10192000C11B414502D90320BDE8F883206A800726
:10193000F4D5206A696820F44070084320621EB123
:10194000E06920F08050E0612878800705D5606864
:10195000A96820F44040084360602878C00605D597
:101960006068E96820F48000084360600020DBE7DD
:101970000010024000700040400442422DE9F04750
:101980000F46050061D0434E306800F00700B842B2
:1019900009D2306820F0070038433060306800F02A
:1019A0000700B84251D128683B4C810712D5400747
:1019B00003D5606840F4E06060602878000703D5D4
:1019C000606840F4605060606068A96820F0F000D2
:1019D000084360602878C00728D06868012810D0C4
:1019E0002168022810D0890700292EDA616821F0C9
:1019F000030101436160FFF71DFE804641F2883913
:101A00000DE021688903EFE78901EDE7FFF712FE9A
:101A1000A0EB0801494502D90320BDE8F0876068C2
:101A2000696800F00C00B0EB810FEFD1306800F076
:101A30000700B8420BD9306820F007003843306007
:101A4000306800F00700B84201D00120E5E72878AF
:101A5000400705D56068E96820F4E06008436060ED
:101A60002878000706D56068296920F4605040EAAC
:101A7000C100606000F058F86168084AC1F30311C2
:101A8000515CC8400649086006480068FFF7F2FD4F
:101A90000020C2E7002002400010024098510008D8
:101AA000840100207C0100200F2202600C4A536850
:101AB00003F003034360536803F0F003836053684B
:101AC00003F4E063C36052684FF4E06303EAD202B8
:101AD00002610448006800F00700086070470000D9
:101AE000001002400020024004480549006849688F
:101AF000044AC1F30221515CC840704784010020B0
:101B000000100240A85100080448054900684968CF
:101B1000044AC1F3C221515CC840704784010020CF
:101B200000100240A851000812A185B00FC98DE82D
:101B30000F0014A0144A006804905168134801F083
:101B40000C03042B10D0082B0ED1C1F38343C9031F
:101B50001DF803000AD5516804AAC1F34041515C45
:101B60000A4A5043B0FBF1F005B0704708494843BA
:101B7000FAE7000002030405060708090A0B0C0D2A
:101B80000E0F1010010200000010024000127A0037
:101B900000093D002DE9F84F040070D02078C04DB9
:101BA000C00749D06868C0F38100012807D0686881
:101BB000C0F38100022809D16868C00306D52868EF
:101BC000800339D560680028E7D035E06068B0F55B
:101BD000803F0BD010B1B0F5A02F11D0286820F4B1
:101BE00080302860286820F4802002E0286840F4D3
:101BF00080302860606890B1FFF71CFD06460AE05F
:101C0000286840F480202860F0E700BFFFF712FD4D
:101C1000801B642873D828688003F7D50CE0FFF791
:101C200009FD064605E000BFFFF704FD801B6428A0
:101C3000F0D828688003F7D420789A4E80074FF0B8
:101C400001094FF0000839D5686810F00C0F07D073
:101C50006868C0F38100022809D16868C00306D40F
:101C60002868800714D52069012808D110E0206970
:101C7000B0B1C6F80090FFF7DDFC074605E00AE1C9
:101C8000FFF7D8FCC01B0228C4D828688007F7D506
:101C90002868616920F0F80040EAC10028600DE082
:101CA000C6F80080FFF7C6FC074604E0FFF7C2FC59
:101CB000C01B022823D828688007F7D420780007A3
:101CC0002CD57948A169D9B1C0F80090FFF7B2FCD2
:101CD000074604E0FFF7AEFCC01B02280FD8686A75
:101CE0008007F7D571484FF4FA510068B0FBF1F066
:101CF000009000BF0098411E0091FAD20EE080E0F3
:101D0000C0F80080FFF796FC074604E0FFF792FC5E
:101D1000C01B022875D8686A8007F7D4207840076E
:101D200060D5E8690027C00008D4E86940F0805019
:101D3000E861E869012700F0805000905C48016884
:101D4000C90513D40168834641F480710160FFF72F
:101D500071FC824606E000BFFFF76CFCA0EB0A00B6
:101D600064284ED8DBF80000C005F5D5E0680128EE
:101D70000AD008B1052813D0286A20F00100286293
:101D8000286A20F0040002E0286A40F0010028627E
:101D9000E06841F2883B98B1FFF74CFC82460BE0CB
:101DA000286A40F004002862EEE700BFFFF742FC1B
:101DB000A0EB0A0159455AD8286A8007F6D50CE0ED
:101DC000FFF738FC824605E0FFF734FCA0EB0A0180
:101DD00059454CD8286A8007F6D41FB1E86920F02D
:101DE0008050E861E06988B36968C1F38101022924
:101DF00044D00228C6F8608004D0FFF71BFC0446DC
:101E000038E034E0FFF716FC074604E0FFF712FC69
:101E1000C01B02282BD828688001F7D4206AB0F5AF
:101E2000803F05D16868A16820F4003008436860ED
:101E3000D4E908010843696821F474110843686013
:101E4000C6F86090FFF7F6FB044606E025E000BF09
:101E5000FFF7F0FB001B022809D828688001F7D59E
:101E60001BE000BFFFF7E6FB001B022802D903209E
:101E7000BDE8F88F28688001F4D40EE00128F7D07F
:101E80006868226A00F48031914204D1616A00F4EA
:101E90007010884201D00120EAE70020E8E7000046
:101EA00000100240000042428004424284010020AF
:101EB000007000407047704770B590F83C20012AD0
:101EC00026D0012480F83C40022280F83D2003689F
:101ED0005A689D6822F070060A6832435A600D4BBA
:101EE00002689A4208D0B2F1804F05D00A4B9A425C
:101EF00002D00A4B9A4204D1496825F08003194365
:101F0000916080F83D40002180F83C10084670BD8B
:101F1000022070BD002C0140000400400008004079
:101F200010B5040003D094F83D0010B107E0012083
:101F300010BD002084F83C00204600F01FF802206D
:101F400084F83D00211D206800F0FEFF012084F888
:101F5000460084F83E0084F83F0084F8400084F88E
:101F6000410084F8420084F8430084F8440084F877
:101F7000450084F83D00002010BD000008B5016850
:101F80001448B1F1804F14D0134A914220D1C16955
:101F900041F00201C161C069002200F0020000901E
:101FA00005211D20FFF7DEFB1D20BDE80840FFF7DF
:101FB000CBBBC16941F00101C161C069002200F0E1
:101FC0000100009005211C20FFF7CCFB1C20ECE752
:101FD00008BD0000001002400004004090F83D10D1
:101FE000012901D001207047022180F83D100168CD
:101FF000CA6842F00102CA6000680B49884208D0F2
:10200000B0F1804F05D00949884202D00849884282
:1020100004D1816801F00701062903D0016841F06D
:102020000101016000207047002C014000040040C5
:102030000008004070B5044690F83C00012817D015
:10204000012584F83C50022084F83D002068826815
:1020500022F0770222F47F4282600868502830D054
:102060000DDC20284DD005DC98B310283BD148E08A
:10207000022070BD302844D0402834D139E0602897
:1020800028D0702806D0B0F5805F2CD0B0F5005F66
:1020900029D10AE0CB68D1E90121206800F097FF3F
:1020A0002068816841F0770109E0CB68D1E901211E
:1020B000206800F08CFF2068816841F480418160D5
:1020C00011E0CA684968206801F036F8502120689C
:1020D00007E016E0CA684968206801F03EF8602110
:1020E000206800F07EFF84F83D50002084F83C001A
:1020F00070BDCA684968206801F01EF84021206858
:10210000EFE7226801461046EBE7704770B50446DA
:10211000006801694FF00005C943890715D4C168FB
:10212000C943890711D4E91E016101202077206885
:1021300080698007204602D0FFF7E7FF04E000F047
:10214000C9F8204600F058F9257720680169C9438D
:10215000490717D4C168C943490713D46FF0040174
:102160000161022020772068806910F4407F2046BA
:1021700002D0FFF7CAFF04E000F0ACF8204600F000
:102180003BF9257720680169C943090716D4C1685E
:10219000C943090712D46FF00801016104202077B8
:1021A0002068C0698007204602D0FFF7AEFF04E038
:1021B00000F090F8204600F01FF9257720680169AB
:1021C000C943C90617D4C168C943C90613D46FF0FF
:1021D00010010161082020772068C06910F4407F59
:1021E000204602D0FFF791FF04E000F073F820468C
:1021F00000F002F9257720680169C943C90708D1B1
:10220000C168C943C90704D1891E0161204600F095
:102210007BF920680169C943090609D4C168C9432B
:10222000090605D46FF0800101612046FFF742FEE8
:1022300020680169C943490609D4C168C9434906F0
:1022400005D46FF040010161204600F073F9206869
:102250000169C94389060BD4C168C943890607D4FB
:102260006FF0200101612046BDE87040FFF723BEFA
:1022700070BD000000B585B0002100910191029170
:1022800003910068B0F1804F1BD10F48816941F084
:10229000040181618069694600F0040004904FF4F4
:1022A000004000900220019003900848FFF7C8F812
:1022B0000748416821F4407141F0E06141F48071C8
:1022C000416005B000BD0000001002400008014060
:1022D00000000140704770B5044690F83C000D4680
:1022E00001280AD0012084F83C0042B1042A18D009
:1022F000082A2AD00C2A4DD139E0022070BD20686E
:1023000000F078FE2068816941F008018161206851
:10231000816921F004018161206881692A69114382
:1023200011E0206800F08EFE2068816941F40061B0
:1023300081612068816921F48061816120688169FF
:102340002A6941EA0221816124E0206800F0A6FEAA
:102350002068C16941F00801C1612068C16921F0AC
:102360000401C1612068C1692A69114311E0206834
:1023700000F0C0FE2068C16941F40061C1612068BD
:10238000C16921F48061C1612068C1692A6941EA9B
:102390000221C161002084F83C0070BD10B504002A
:1023A00003D094F83D0010B107E0012010BD0020DB
:1023B00084F83C00204600F01EF8022084F83D001E
:1023C000211D206800F0C0FD012084F8460084F83B
:1023D0003E0084F83F0084F8400084F8410084F80F
:1023E000420084F8430084F8440084F8450084F8EF
:1023F0003D00002010BD70477047000010B5044636
:10240000022249B104290ED0082913D094F84100C2
:10241000012816D0012010BD94F83E000128F9D102
:1024200084F83E200FE094F83F000128F2D184F8B0
:102430003F2008E094F840000128EBD184F84020C8
:1024400001E084F841200122206800F0B3FD0F492B
:102450002068884203D1426C42F400424264206802
:10246000884208D0B0F1804F05D00949884202D097
:102470000849884204D1816801F00701062903D088
:10248000016841F001010160002010BD002C0140F5
:10249000000400400008004030B504460D460068C6
:1024A000002200F087FD174B41F2111120688A10BD
:1024B000984209D1036A0B4206D1036A134203D141
:1024C000436C23F4004343642068036A0B4206D143
:1024D000016A114203D1016821F00101016001206C
:1024E0003DB1042D08D0082D09D084F8410000200A
:1024F00030BD84F83E00FAE784F83F00F7E784F83F
:102500004000F4E7002C014010B50446006807497C
:10251000884201D1FFF794F805492068884203D129
:10252000BDE81040FEF77ABA10BD0000002C014053
:10253000000400407047704770470000F8B502681B
:1025400004461068D168536910F00F0F4FF0000572
:1025500053D003F0010601F4907737435FD0C207F0
:1025600005D0CA0503D5226C42F00102226442075D
:1025700005D5DA0703D0226C42F0020222648207FA
:1025800005D5DA0703D0226C42F004022264020768
:1025900007D501F02002324303D0226C42F008023A
:1025A0002264226C002A34D0800604D5880602D525
:1025B000204600F004FE20684069216CC0F38010C2
:1025C000090700D430B3204600F0E1FD20684169DE
:1025D00049061BD5416921F040014161A06BA8B1BA
:1025E00058494163A06BFEF7DFFE002811D0A06BB5
:1025F000416B01B0BDE8F040084783060FD58B065C
:102600000DD52046BDE8F84000F0D9BD2046FFF7C3
:1026100093FFF8BD2046FFF78FFF2564F8BD266BBA
:102620002023012E52D1C60650D5CE064ED51068B5
:1026300050680090506940062AD5A16B0868406830
:102640000004000CEAD0A68D8642E7D9E0858869AF
:10265000202818D0D06820F48070D06020684169AC
:1026600021F0010141612068416921F0400141618F
:1026700084F83E3025632068C16821F01001C160F4
:10268000A06BFEF76DFEA08DE18D401A81B219E0BE
:10269000A08DE18D401A81B2E08D0028BED00029C6
:1026A000BCD0D06820F49070D0602068426922F0DD
:1026B0000102426184F83E3025632068C26822F03E
:1026C0001002C2602046FFF736FFF8BD05062BD585
:1026D0000D0629D594F83D002128F6D1A068B0F563
:1026E000805F01D12069B0B1206A411C216221685C
:1026F00000784860E08C401E0004000CE084E4D1C7
:102700002068C16821F08001C1602068C16841F083
:102710004001C160F8BD206A0088C0F30800506025
:10272000206A801C2062E5E74006F3D54806F1D513
:10273000D168204621F04001D16084F83D3000F09E
:1027400076F8F8BD7F31000870B5040004D094F825
:102750003D00002510B106E0012070BD84F83C501A
:10276000204600F023F8242084F83D002068C1684A
:1027700021F40051C160204600F07CFD2068016911
:1027800021F4904101612068416921F02A014161F1
:102790002068C16841F40051C1602564202084F89C
:1027A0003D0084F83E00002070BD000030B585B0CB
:1027B000002400940194029403940068184988420C
:1027C0002CD11848816941F480418161816901F40B
:1027D00080410491816941F0040181618069124D59
:1027E00000F0040004904FF400700090022001906B
:1027F0000320039069462846FEF722FE2815CDE9FE
:102800000004694628460294FEF71AFE00220521BC
:102810002520FEF7A7FF2520FEF796FF05B030BD67
:102820000038014000100240000801407047704726
:10283000FEE7000070B501250F4C2A46690325709C
:1028400065700E48FEF7F1FEE06920B100231A46DC
:10285000194602F055F841F2883001F0EDF8E06ACF
:1028600001F0AAFD25700220607050202071A57132
:102870000020A06170BD0000200000200010014079
:1028800010B510210448FEF7CBFE012801D001202D
:1028900010BD002010BD00000008014010B5FFF77A
:1028A000EFFF20B100F006F808B1012010BD0020B4
:1028B00010BD000010B520210448FEF7B1FE01282C
:1028C00001D0012010BD002010BD00000008014013
:1028D00010B540210448FEF7A3FE012801D00120D5
:1028E00010BD002010BD000000080140F8B51446DE
:1028F0000D4600F04DF8114B0A216E46D8700020AD
:1029000013F10407B5FBF1F201FB1252B5FBF1F52F
:10291000BA5C3254401CC0B20328F3D39DF80000C7
:1029200018709DF8010058709DF802009870042CF2
:1029300002D2185D80381855F8BD00000200002052
:1029400078B50022114E6D460A2300BFB0FBF3F4A8
:1029500003FB1404B0FBF3F0345DAC54521CD2B250
:10296000042AF3D309489DF80020001F04290270AF
:102970009DF8012042709DF8022082709DF803208E
:10298000C27002D2425C803A425478BD06000020F8
:10299000024600202E49382A42D010DCA2F1230240
:1029A000152A17D2DFE802F04E5216161616164CEC
:1029B00016165016162C2E30323436383A00452A68
:1029C00036D00EDC422A2FD005DC392A2AD0412A03
:1029D00000D1887A7047432A28D0442AFAD1487B0C
:1029E0007047502A28D005DC462A23D04C2AF7D13C
:1029F000C87C7047552A21D0592AFAD1887C704763
:102A0000087870474878704788787047C87870476A
:102A1000087970474879704788797047C879704756
:102A2000087A7047487A7047C87A7047087B7047C1
:102A3000887B7047C87B7047087C7047487C70472C
:102A4000087D7047487D7047887D7047C87D704716
:102A500006000020F0B50A4E0D460746002400BFD0
:102A6000C4F10300385CFFF793FF3055641C042C5D
:102A7000F6DB042D02D2705D80387055F0BD000089
:102A8000020000203EB500241048009401940294F6
:102A90000D498460016004730475012505614FF4DC
:102AA00060214460C161FEF731FB08B1FDF7F8FF1A
:102AB0000095CDE9015469460448FEF7F5F9002870
:102AC00001D0FDF7EDFF3EBD00240140980300203A
:102AD00000B587B00948FFF781FA0948FFF77EFA89
:102AE0001C2208496846FDF77BFB0021684600F080
:102AF000AFFF0549486307B000BD0000C8030020D0
:102B0000100400207C510008200000202DE9F04135
:102B100086B000242C4800940194029403948169A7
:102B200041F010018161816901F010010491816916
:102B300041F020018161816901F0200104918169E6
:102B400041F004018161816901F00401049181690E
:102B500041F00801816180691C4F00F008004FF4CA
:102B600000550490002229463846FEF75EFDDFF846
:102B700060800022FF214046FEF757FD01224FF4FE
:102B800070414046FEF751FD00950226012503964F
:102B9000CDE9015469463846FEF752FC7020CDE974
:102BA000000469460B480294FEF74AFC4FF2FF000E
:102BB000CDE90005CDE9024669464046FEF740FCF6
:102BC00006B0BDE8F0810000001002400010014096
:102BD000000C01400008014010B58EB0002407949D
:102BE000089409940A940B941C2168460C94FDF7F0
:102BF00010FB1F484FF0804101604721C0E90114DC
:102C000041F28731C0E9031480218161FFF788F91F
:102C100008B1FDF745FF4FF48050079007A914480D
:102C2000FFF708FA08B1FDF73BFF1148FFF7B6FBC5
:102C300008B1FDF735FF0B940BA90D480C94FFF775
:102C40003BF908B1FDF72CFF602000906420CDE92E
:102C5000010404200490002269460548FFF73BFB6D
:102C600008B1FDF71DFF0248FFF704FB0EB010BDD1
:102C7000C803002010B586B00024174800940194C2
:102C80000294039404941349059401604821C0E917
:102C900001144FF47A71C0E903148461FFF740F91D
:102CA00008B1FDF7FDFE4FF48050009069460A48D8
:102CB000FFF7C0F908B1FDF7F3FE049404A9064834
:102CC0000594FFF7F9F8002801D0FDF7E9FE06B0FA
:102CD00010BD000000040040100400200C4810B596
:102CE0000A4901604FF4E1314160002181600C220A
:102CF000C160C0E904128161C161FFF725FD0028B0
:102D000003D0BDE81040FDF7CBBE10BD0038014038
:102D100058040020FEE7FEE701461348006900283A
:102D200020D00B291ED2DFE801F01D06080A0D0F86
:102D3000111315171900202112E0042110E04FF49F
:102D400080710DE010210BE0022109E0802107E0F5
:102D5000082105E0012103E0402101E04FF400716A
:102D600001F0CCBC7047000020000020014A107028
:102D700051707047200000201CB501F083FA01213A
:102D80000022084601F054FD244CE06001F0A8FC4C
:102D9000206103220021012001F04AFDE06104F1DD
:102DA00020010820CDE90001002340221CA11F487A
:102DB00001F0E8FF04F124010620CDE90001002321
:102DC00040221BA11D4801F0DDFF04F12801132062
:102DD000CDE9000100234FF4807219A11B4801F0D6
:102DE000D1FF04F12C011620CDE90001002340227F
:102DF00017A11D4801F0C6FF04F130010120CDE903
:102E000000010023402219A11B4801F0BBFF606BA9
:102E100001F0D2FABDE81C4001F054BA20000020B5
:102E20007365675F7461736B000000002D400008DC
:102E30006B65795F7461736B00000000E935000811
:102E40007374617475735F7461736B0091410008F2
:102E50007374617274696E67616E696D6174696FB4
:102E60006E5F7461736B0000014100086D757369DA
:102E7000635F7461736B0000A139000810B55020C6
:102E800080F31188BFF34F8FBFF36F8F01F0E0FF26
:102E900018B104494FF080500860002080F3118879
:102EA00010BD000004ED00E030B593B02821684665
:102EB000FDF7AFF914210AA8FDF7ABF900250120B1
:102EC0000F9510951195010412958DE8230004903B
:102ED0004FF4E010CDE90810022407946846FEF78D
:102EE00059FE08B172B6FEE70AA90F2081E8310049
:102EF0004FF48060CDE90D0502210AA8FEF73EFDE2
:102F000008B172B6FEE74FF4004011900F940FA87D
:102F1000FEF7BEFC002801D072B6FEE713B030BD4C
:102F2000704700000148FFF7F1B800009C04002042
:102F30000148FFF7EBB80000C80300200148FFF785
:102F4000E5B8000010040020F0B50268164B174CDD
:102F5000174D4FF08047984205D0B84203D0A042A9
:102F600001D0A84203D122F070064A683243984249
:102F700005D0B84203D0A04201D0A84203D122F428
:102F80004074CA6822434C6922F0800222430260E6
:102F90008A68C2620A688262984201D10969016343
:102FA00001214161F0BD0000002C014000040040FF
:102FB0000008004010B501F01F030121046A994088
:102FC0008C430462016A9A401143016210BD10B53E
:102FD000846842EA032224F47F440A432243826045
:102FE00010BD826822F070020A4342F0070181603E
:102FF0007047000030B5026A22F001020262026AE4
:103000004368846924F073050C682C4322F00205A0
:103010008A682A430A4DA8420BD122F00805CA68E3
:1030200023F440732A434D6922F004021D438B6947
:103030002B434360846149684163026230BD0000F4
:10304000002C014030B5026A22F010020262026ACE
:10305000436884690D6824F4E64444EA05248D68D5
:1030600022F0200242EA05120B4DA8420ED1CD6893
:1030700022F0800242EA05124D6923F4406343EADC
:1030800085038D6922F0400243EA85034360846131
:1030900049688163026230BD002C014030B5026A8C
:1030A00022F480720262036A4268C46923F40073E6
:1030B00024F073050C682C438D6843EA05230C4DFE
:1030C000A8420ED1CD6823F4006343EA05234D697D
:1030D00022F4405242EA05128D6923F4806342EAE9
:1030E00005124260C4614968C163036230BD0000DB
:1030F000002C014030B5026A22F480520262046A58
:103100004268C3690D6823F4E64343EA05238D68EA
:1031100024F4005444EA0534064DA84204D14D6914
:1031200022F4804242EA85124260C3614968016428
:10313000046230BD002C014010B5036A046A24F01B
:1031400001040462846924F0F00444EA021423F0C8
:103150000A020A438461026210BD10B5036A23F0BB
:10316000100303628369046A23F4704343EA023262
:1031700024F0A00343EA01118261016210BD10B581
:10318000406A0021C185C184FFF7D6F910BD0168EE
:10319000CA6822F49072CA6001684A6922F001028A
:1031A0004A61016B012904D10168CA6822F010024A
:1031B000CA60202180F83E1000210163704708B5E5
:1031C00090F83E10222901D0022008BD82684FF4F9
:1031D00080539A4201D1016921B1816A9A421BD080
:1031E0004AB10AE00268816A5268C2F308020A80A2
:1031F000816A891C08E0026972B10268526802F0B3
:103200007F020A70816A491C8162C18D491E0904CE
:10321000090CC18503D019E002685268F1E7016822
:10322000CA6822F02002CA600168CA6822F480726B
:10323000CA6001684A6922F001024A61202180F8CF
:103240003E10016B012903D0FFF7F0FA002008BD02
:10325000002101630168CA6822F01002CA60016897
:103260000A68D20602D50A6849680091818DFFF785
:1032700062F9EBE770B5044600680169E26821F481
:103280004051114301612169A06808436169084305
:103290002168CA6841F20C639A430243CA602068FD
:1032A0004169A26921F44071114341611E492068BE
:1032B000884202D1FEF728FC01E0FEF715FC00EB86
:1032C000C00101EB0012606864218000B2FBF0F3E2
:1032D000B3FBF1F36FF018067343B2FBF0F5B2FBEA
:1032E000F0F605EB8305322303EB0515B5FBF1F58D
:1032F000B6FBF1F605F0F00505EB0615B2FBF0F6AE
:10330000B2FBF0F0B0FBF1F06FF01802504306EBA7
:10331000800003EB0010B0FBF1F0216800F00F001B
:103320002844886070BD0000003801400148FFF764
:1033300005B9000058040020FEE70907090E00281F
:1033400004DB00F1E02080F80014704700F00F006B
:1033500000F1E02080F8141D70472DE9F0414F1E68
:1033600000EBC7010446D1E9000115461E4637F0BF
:1033700006020DD02A463346FDF7A7F97F1E04EB5F
:10338000C703D3E90023FCF78DFF37F00602F1D124
:10339000022F25D0042F13D0062F18BFBDE8F081CF
:1033A0002A463346FDF791F9D4E90A23FCF77AFF60
:1033B0002A463346FDF789F9D4E90823FCF772FF62
:1033C0002A463346FDF781F9D4E90623FCF76AFF64
:1033D0002A463346FDF779F9D4E90423FCF762FF66
:1033E0002A463346FDF771F9D4E90223FCF75AFF68
:1033F0002A463346FDF769F9D4E90023BDE8F041D8
:10340000FCF750BF0022134610460149FCF7F1BFFC
:103410000000F03F0122FDF7CAB900221346104612
:103420001146FCF7E6BF02E008C8121F08C1002AD7
:10343000FAD170477047002001E001C1121F002A35
:10344000FBD170470149086070470000E801002087
:1034500010B5044600688047002300282079617970
:103460002DD0884201D2217110BDB0EB410F02D2A4
:10347000401C207110BDA07A28B90120A072207BC9
:1034800008B100F0A3F820890028F3D0E188814238
:1034900006D2491C89B2E1808142EBD1607B0AE00F
:1034A000A07B0028E6D0E17B491CC9B2E1738142D0
:1034B000E0D3E373207BBDE8104000F087B888427A
:1034C00001D921710BE010B1401E207107E0A07AF4
:1034D000012804D1A372E07A08B100F077F8E38004
:1034E000E37310BD07490A7D487D824201D1002067
:1034F0007047885C521CD2B20A75142AF8D3002295
:103500000A7570472C020020AFF3008030B52049C7
:103510000020204A087548754039AA240A6005220F
:103520004A710C8102230B71887201250D73CB72D5
:1035300003254D738873C8731031174D0D604A71A0
:103540000C810B71887204250D73CA7206254D73A8
:103550008873C8731031114D0D604A710C810B7165
:10356000887207240C730824CC7209244C73887366
:10357000C87310310A4C0C604A7108810B71887253
:103580000A220A73C87248738873C87330BD00007A
:103590002C02002081280008B5280008D128000846
:1035A0009D28000810B50848FFF752FF0648103064
:1035B000FFF74EFF04482030FFF74AFF0248BDE8FE
:1035C00010403030FFF744BFEC01002005494A7D30
:1035D0008854487D401CC0B24875142801D300208F
:1035E000487570472C020020FFF7DCFFFFF77AFFD9
:1035F00018B1FFF791FBFDF7CBF90A2000F01CFA98
:10360000F2E700002DE9F04DC84A002490B0914245
:1036100005DA21F00043934201D805D120B110B062
:10362000BDE8F04DFFF7F6BEB1F5801F1BDA53EA97
:10363000000209D0002911DA0120FFF703FF10B0C2
:10364000BDE8F04DFFF7E9BE0220FFF7FBFEFFF7F4
:10365000D9FE10B081F00041BDE8F08D6FF0350467
:103660003622FDF7A4F804EB2152C1F31308B04948
:10367000A2F2FF33414401F4801282F07F6103EB38
:10368000225281F04051009241EA08010022A94BE8
:10369000FCF7A9FE044608F10200A74EC0F3130090
:1036A0000D467E44032867D2D6E900232046FDF765
:1036B000A7F81ED10098002802BFD6E9000110B07B
:1036C000BDE8F08DFDF78AF807460C469B4A9C4BF7
:1036D000FCF7FBFF06460D469A4A9B4B38462146AF
:1036E000FCF7F3FF10B032462B46BDE8F04DFCF777
:1036F000D9BD4FF05532954B20462946FCF7E5FFE2
:103700000022934BFCF772FE06460F4622462B46DC
:1037100010461946FCF7D9FF32463B46FCF7D5FF69
:10372000064600980F46F0B1FDF758F880468A46E5
:10373000824A834BFCF7C9FF32463B46FCF756FEF4
:1037400022462B46FCF74FFE05460C467D4A7E4B33
:1037500040465146FCF7B9FF10B02A462346BDE863
:10376000F04DFCF740BE0B4610B0324620462946CD
:10377000BDE8F04DFCF737BE00224FF080432046F5
:10378000FCF790FD02460B4620462946FCF731FE29
:1037900006460F460098FDF721F8CDE904013246B0
:1037A0003B4610463946FCF790FF0C9069480C9A4E
:1037B0004044019009910B461046FCF786FF824673
:1037C000024665488B46C8F151080B4608F5D728D4
:1037D00003217844FFF7C1FD52465B46FCF775FFB5
:1037E0000A905E480D9152465B4604217844FFF7EB
:1037F000B4FD099B0C9AFCF768FF844601980D9B69
:1038000040EA080860460A9AFCF74CFD8346089196
:10381000B8F1000F4EDD4FF0FF3220462946FCF78D
:10382000C6FF22462B46FCF750FF804600988A468A
:1038300060B3DDE90401414A414BFCF746FF0991C1
:1038400000905A4640465146089BFCF72BFD3246F5
:103850003B46FCF73AFF099B009AFCF723FD4246E2
:103860005346FCF7C3FD22462B46FCF7BCFD04463D
:103870000D46DDE90401334A334BFCF726FF10B057
:1038800022462B46BDE8F04DFCF7ADBD5A464046FA
:10389000089BFCF707FD32463B46FCF716FF424605
:1038A0005346FCF7A3FD10B022462B46BDE8F04D71
:1038B000FCF79CBD009840B3DDE904011F4A204B92
:1038C000FCF703FF80468A465A4620462946089B55
:1038D000FCF789FD32463B46FCF7F7FE424653466D
:1038E000FCF781FD22462B46FCF77DFD04460D4684
:1038F000DDE90401134A144BFCF7E7FE10B0224641
:103900002B46BDE8F04DFCF76EBD0B465A462046EF
:103910002946FCF768FD32463B46FCF7D6FE10B060
:1039200022462B46BDE8F04DFCF760BD0000F07F5D
:10393000645F09000000F03F421B0000763C7935CF
:10394000EF39EA3D0000E0FE422EE63F5555D53FF7
:103950000000E03F86EBF9FFDA190000D8190000FB
:10396000FDF776FEFFF7A0FAFFF7D0F8FFF7B6F9FC
:10397000FFF732F9FFF786F8FFF77CF9FFF7C4FD90
:103980000348FDF723FAFFF7A3F800F05CF8FEE721
:103990009803002001460020842900D0C81C7047ED
:1039A000234E4FF080444FF6FE75B079E0BB70793E
:1039B000012804D0022812D0032835D11FE00021AD
:1039C0001C48FEF71BFD206840F00100206001202C
:1039D00000F032F820682840206001201EE000211D
:1039E0001448FEF70BFD206840F0010020600A201B
:1039F00000F022F82068284020600A200EE0002114
:103A00000C48FEF7FBFC206840F0010020606420B9
:103A100000F012F8206828402060642000F00CF8C4
:103A200000210448FEF738FD642000F005F8BCE7EB
:103A300020000020C803002010B500B9012000F0CC
:103A400095FC002010BD10B500F0BEFD002010BD9B
:103A50007FB50D4604464169B0F9080081B1A169FE
:103A600071B1FFF797FFD4E905128DE80700D4E99B
:103A700000102B46226901F0B2F9039004B070BD2A
:103A8000FFF788FF03A9CDE90001208A2B4682B207
:103A9000D4E9001001F076F9012801D00020EDE70B
:103AA0000398EBE72DE9F041184C0F46054666698F
:103AB0002068001D00F096FB38B9206890F82C10A3
:103AC00001208840A1698143A161681C07D137B1F9
:103AD0002168BDE8F0410E48091D00F0C7BB206811
:103AE0003544B5424560216805D2A068BDE8F04183
:103AF000091D00F0A3BB6068091D00F09FFB206B4F
:103B0000854200D22563BDE8F081000088010020D5
:103B1000C00500202DE9F041054600F0B3FB2E4C16
:103B20002069401C206120682C4F10B1E06940B32F
:103B30002DE025602069012829D1002606EB8600AA
:103B400007EB800000F06CFB761C072EF6D32348B1
:103B50008C3000F065FB2148A03000F061FB1F486D
:103B6000B43000F05DFB1D48C83000F059FB1B4825
:103B7000DC3000F055FB19488C3060601430A060D8
:103B800005E02068E96AC06A884200D82560E06ADA
:103B9000401CE062E96A0120A26988401043A061EC
:103BA00001EB810007EB8000291D00F05FFB00F0B6
:103BB00089FBE06900280CD02068E96AC06A884265
:103BC00007D207494FF080500860BFF34F8FBFF313
:103BD0006F8FBDE8F081000088010020E404002020
:103BE00004ED00E030B4026C0B46002A0BD0C16833
:103BF0001144C1604468A14201D30168C16030BC76
:103C00001846FCF7EDBA30BC70472DE9F041856BE2
:103C1000174604460026026C82B1C7B1E068FCF783
:103C2000DFFAE168206C091AE1602268914202D251
:103C30006168081AE060022F16D017E02068A8B962
:103C4000606801F069F90646002060600EE0A06837
:103C5000FCF7C6FA216CA0680844A060616888423D
:103C600004D32068A06001E005B16D1E6D1CA56342
:103C70003046BDE8F08110B5044690F8510058B1C7
:103C800001280CD002280FD0502080F31188BFF3F8
:103C90004F8FBFF36F8FFEE7206B00F027FB2046AE
:103CA000BDE8104000F022BB10BD000010484FF4EA
:103CB0004061420706D0C01D0D4920F00700411A9F
:103CC000C1F540610B4A00230144C2E900030839F1
:103CD000103A21F0070111604B600B600B1AC0E92C
:103CE000001393604FF000405360D06070470000B5
:103CF000D4050020D4010020144E154CA6F1C807AD
:103D00004FF08058DFF84C9012E000BF00F0BAFA94
:103D1000F068C568281D00F065FA2069401E206122
:103D2000E068401EE06000F0CDFA2846FFF7A3FFF0
:103D3000E0680028EAD138680128F9D9C9F800807C
:103D4000BFF34F8FBFF36F8FF2E70000AC05002089
:103D50008801002004ED00E00346009829B10260CC
:103D6000C0E90F31012100F087BD0060F8E72DE9BF
:103D7000F0479A46DDE9098481466FF00303206B22
:103D800003EB82021044089D20F00706700707D05D
:103D9000502080F31188BFF34F8FBFF36F8FFEE782
:103DA00023180A5C83F834200A5C12B1401C1028E6
:103DB000F6D3002784F84370072D00D30625E5626B
:103DC000C4E91157201D00F036FA04F1180000F084
:103DD00032FA2461C5F107006462A061E76484F8E7
:103DE000507052464946304600F00EF92060B8F156
:103DF000000F01D0C8F80040BDE8F08730B5114988
:103E000000E011460A688242FBD34B685C1884428A
:103E100003D1406818444860084643681C1894421F
:103E200009D1084C103C2468A24209D052681A44B7
:103E300042600A6812680260814200D0086030BDAA
:103E40000460F9E7D401002010B5044600F01AFA26
:103E5000A06B28B15FF0000400F034FA204610BDDA
:103E60000124F9E706484168096829B14168C96831
:103E7000C9684968016370474FF0FF31FAE70000F5
:103E80008801002008484068401C4FF0500080F333
:103E9000118804D0BFF34F8FBFF36F8FFEE7BFF3DE
:103EA0004F8FBFF36F8FFEE7DC0100202DE9F0415B
:103EB000044600F0E7F994F9455004F1240609E0BE
:103EC000606A48B1304601F0BDF808B100F0D2FA9E
:103ED0006D1E6DB2002DF3DC4FF0FF3684F84560A7
:103EE00000F0F0F900F0CEF994F9445004F1100715
:103EF00009E0206948B1384601F0A4F808B100F0A3
:103F0000B9FA6D1E6DB2002DF3DC84F84460BDE893
:103F1000F04100F0D7B900002DE9F0410546002737
:103F200000F088FB314E306808B9FFF7BFFEF0683B
:103F300005424BD1C5B3083568070ED005F0070020
:103F4000C0F108000544680707D0502080F31188AD
:103F5000BFF34F8FBFF36F8FFEE72DB370688542BD
:103F600034D82248103001460C6801E020460C4647
:103F70006168A94202D221680029F7D131688C42D8
:103F800024D007682168016060680837411B102948
:103F90000FD96019420708D0502080F31188BFF371
:103FA0004F8FBFF36F8FFEE710E041606560FFF752
:103FB00025FF61687068401A7060B268904200D254
:103FC000B060F06801430020C4E9000101F074F81A
:103FD000780707D0502080F31188BFF34F8FBFF3CD
:103FE0006F8FFEE73846BDE8F0810000C401002075
:103FF0000449086818B10868826C521C8264086819
:10400000704700008801002010B5031F4FF0807436
:104010001C601B1F21F001011960191F024B0B606E
:10402000143940380A6010BD853E0008274C2078BE
:10403000617850EA010204D0012805D0022819D085
:104040003CE0FF2122A02DE0012937D0022904D035
:10405000032906D0042931D109E003222179412026
:1040600002E0032261795520FEF740FC26E003219F
:1040700019A017E0052906D006290ED0072914D06B
:1040800008291BD11EE0032115A0FEF7E3FC16480A
:10409000016841F47041016010E0E0790028D0D15E
:1040A000042112A0FEF7D6FC08E01248FDF7F2F852
:1040B000A069032100F6B830FEF742FC6420FFF748
:1040C000BBFCB4E703210CA0ECE7000020000020BB
:1040D0002323232300000000422D2D2D000000008B
:1040E000314C4544000000000C0C01402A2A2A2AC9
:1040F00000000000980300203442505000000000EF
:104100004FF4FA7541F28830B0FBF5F0174CC6B2A7
:104110004FF0FF37E0690028FCD0394600F03CFD45
:104120000128F7D1207A8642F4D0FF2110A0FEF7B3
:1041300091FC2846FFF780FCFF210FA0FEF78AFCC8
:104140002846FFF779FCFF210DA0FEF783FC2846E7
:10415000FFF772FCFF210CA0FEF77CFC2846FFF75E
:104160006BFC207A401C2072DCE70000200000205D
:104170002423232300000000232423230000000025
:104180002323242300000000232323240000000015
:1041900008B5FEF74FFB124C4FF0FF3604F138051F
:1041A000E068C0B13246694600F05AFC98B19DF80B
:1041B0000000082805D32178032902D36178092952
:1041C00009D200EBC000617805EB800050F8212097
:1041D0000AB1207890473220FFF72EFCE0E700007C
:1041E00020000020D0E9013201699A60D0E9012362
:1041F0005A604A68824201D182684A6000220261A4
:104200000868401E0860086870470000034B0360A0
:1042100003F1540008604020106070474402002001
:1042200000F108014FF0FF32C0E90112C1600161E5
:1042300000210160704700210161704730B50B68B3
:104240005A1C02D000F1080202E0026904E0224692
:10425000546825689D42FAD953684B6099608A601A
:10426000516008610168491C016030BD42684A60C4
:1042700093688B6093685960916008610168491C7C
:1042800001607047502080F31188BFF34F8FBFF358
:104290006F8F0A494868401C486001280CD10848C3
:1042A000006810F0FF0F07D0502080F31188BFF393
:1042B0004F8FBFF36F8FFEE770470000DC010020D7
:1042C00004ED00E00849486828B1401E486001D16B
:1042D00080F311887047502080F31188BFF34F8F0F
:1042E000BFF36F8FFEE70000DC01002070B50028EF
:1042F00027D0144DA0F108046168E868014207D195
:10430000502080F31188BFF34F8FBFF36F8FFEE70C
:1043100022683AB1502080F31188BFF34F8FBFF36A
:104320006F8FFEE78143616000F084F9606869681F
:10433000084468602046FFF761FDBDE8704000F06A
:10434000BBBE70BDC40100204FF0E0200021016120
:10435000816105494FF47A720968B1FBF2F1491E97
:1043600041610721016170478401002010B50200FE
:1043700014D00F48806B38B1502080F31188BFF300
:104380004F8FBFF36F8FFEE700F054F90021104606
:10439000FFF788FB00F090FE002807D105494FF099
:1043A00080500860BFF34F8FBFF36F8F10BD0000C8
:1043B0008801002004ED00E070B50546FFF762FFBC
:1043C000254C05B92568281DFFF70CFF58B9E86A88
:1043D000224A00EB800152F8211021B901218140CD
:1043E000A0698843A061A86A18B105F11800FFF719
:1043F000F9FEE06A401CE0622068854208D1174857
:10440000291DC830FFF732FFE068401CE06007E07C
:104410002069401E20612846FFF72DFCFFF722FD92
:10442000FFF750FFE069002814D02068854211D1C1
:10443000A06B38B1502080F31188BFF34F8FBFF3CA
:104440006F8FFEE706494FF080500860BFF34F8F33
:10445000BFF36F8F70BD000088010020E4040020CE
:1044600004ED00E002498A6A0260496941607047D0
:10447000880100200149012048627047880100201E
:1044800010B50C4650B1094909681831FFF7D6FE3E
:104490002046BDE810400121FFF704BB502080F307
:1044A0001188BFF34F8FBFF36F8FFEE788010020A5
:1044B00070B504004BD0A26CA2B1606C884200D3EE
:1044C0000146E06A884242D0012A40D1204D2A6844
:1044D00094420FD1502080F31188BFF34F8FBFF368
:1044E0006F8FFEE7502080F31188BFF34F8FBFF32B
:1044F0006F8FFEE7E162A269002A02DBC1F10701CA
:10450000A161144E00EB8000616906EB80008142DE
:104510001DD1201DFFF766FE012150B9E06A00EBB6
:10452000800256F8222022B9AA6901FA00F08243DB
:10453000AA61E06AAA6981401143A96100EB800089
:1045400006EB8000211DBDE87040FFF78FBE70BDF7
:1045500088010020E404002070B5194EB26BFAB156
:1045600041F000410160C46814B3FFF73BFE201D19
:10457000FFF738FEE16A0125B26905FA01F0104340
:10458000B06101EB81000F4901EB8000211DFFF7B5
:104590006DFEE06A3168C96A884200D9756270BDF3
:1045A000502080F31188BFF34F8FBFF36F8FFEE76A
:1045B000502080F31188BFF34F8FBFF36F8FFEE75A
:1045C00088010020E404002010B586B00024039484
:1045D00005AA04A903A80494FFF718FEDDE9030166
:1045E0000094CDE9011000230EA11048059A00F0B7
:1045F000F6FB0F490028486311D0502080F3118842
:10460000BFF34F8FBFF36F8F4FF0FF300863012070
:10461000C8614C6106B0BDE8104000F0B5B806B006
:1046200010BD000049444C4500000000F93C000862
:10463000880100200248816B491C8163704700009B
:10464000880100201448816B11B10121416270473B
:10465000002141628169B1FA81F1C1F11F0101EBD1
:1046600081020E4951F822306BB101EB820101F158
:1046700008034A6852684A609A4201D152684A6007
:10468000D16801607047502080F31188BFF34F8FCD
:10469000BFF36F8FFEE7000088010020E4040020D4
:1046A00070B50E46040009D0300E0FD0502080F3B4
:1046B0001188BFF34F8FBFF36F8FFEE7502080F359
:1046C0001188BFF34F8FBFF36F8FFEE7FFF7DAFD5F
:1046D000256825EA06002060FFF7F4FD284670BD36
:1046E00070B51C20FFF718FC040005D00025201D24
:1046F0002560FFF795FD2576204670BD2DE9F04138
:104700000027884604000AD05FEA18600FD05020C6
:1047100080F31188BFF34F8FBFF36F8FFEE75020F8
:1047200080F31188BFF34F8FBFF36F8FFEE7261D15
:1047300004F10C05FFF77EFF2168F06841EA0801EB
:10474000216017E0D0E9001601F07F425301236891
:1047500021F07F4102D40B4203D10AE031EA030386
:1047600007D1D20100D50F43216841F00071FFF756
:10477000F3FE3046A842E5D12068B843206000F03F
:104780009BFC2068BDE8F0811CB5264908780190A3
:10479000FF20087008788DF800009DF800009DF853
:1047A000002000F0F000904207D0502080F31188E4
:1047B000BFF34F8FBFF36F8FFEE79DF800001A4BDA
:1047C00000F0500018700720986005E09DF8002068
:1047D00052008DF80020401E9DF800201206F5D4EE
:1047E0009860032807D0502080F31188BFF34F8FC3
:1047F000BFF36F8FFEE74FF4407098600198087028
:104800000A48016841F470010160016841F070419B
:104810000160FFF799FD00205860FBF785FC002040
:104820001CBD000000E400E0DC01002020ED00E001
:10483000F8B517460E46050014D0DEB105FB06F0AC
:104840004830FFF769FB04000AD0002084F84600D6
:1048500004F148023B46314628460094FFF77CFAB3
:104860002046F8BD502080F31188BFF34F8FBFF36F
:104870006F8FFEE70020E3E770B50D46040025D0FA
:10488000FFF700FDD4E90F20216802FB00116160F1
:104890000021A1632168A1600A46D4E90F01401EEE
:1048A00000FB0121E16021464FF0FF3001F8440F89
:1048B000487004F110008DB1FFF7B2FC04F1240040
:1048C000FFF7AEFCFFF7FEFC012070BD502080F327
:1048D0001188BFF34F8FBFF36F8FFEE72169002967
:1048E000F0D000F0AFFB0028ECD004494FF080502E
:1048F0000860BFF34F8FBFF36F8FE3E704ED00E075
:104900002DE9FF4782B01D468A464FF0000804009B
:1049100003D0BAF1000F08D011E0502080F31188C5
:10492000BFF34F8FBFF36F8FFEE7206C38B150207D
:1049300080F31188BFF34F8FBFF36F8FFEE7022D17
:104940000AD1E06B012807D0502080F31188BFF313
:104950004F8FBFF36F8FFEE700F06CFA3F4F4FF0C1
:1049600000094FF0805648B9049838B1502080F3C0
:104970001188BFF34F8FBFF36F8FFEE7FFF782FC05
:10498000A06BE16B884207D3022D05D00498D0B10B
:10499000B8F1000F1AD01EE02A4651462046FFF714
:1049A00034F9616A19B104F1240000F04BFB20B125
:1049B0003E60BFF34F8FBFF36F8FFFF783FC012083
:1049C00006B0BDE8F087FFF77DFC22E06846FFF700
:1049D00049FD4FF00108FFF775FCFFF72BFEFFF7CD
:1049E00051FC94F94400401C01D184F8449094F99E
:1049F0004500401C01D184F84590FFF763FC04A9F1
:104A0000684600F085F930B12046FFF74FFA00F014
:104A100053FB0020D4E7FFF735FCA06BE16B884225
:104A200013D1FFF74FFC04F110000499FFF728FDA4
:104A30002046FFF73BFA00F03FFB00289ED13E6086
:104A4000BFF34F8FBFF36F8F98E7FFF73BFC204614
:104A5000FFF72CFA00F030FB90E7000004ED00E0D7
:104A60002DE9F747002683B08A46040003D0BAF147
:104A7000000F08D011E0502080F31188BFF34F8F52
:104A8000BFF36F8FFEE7206C38B1502080F31188A0
:104A9000BFF34F8FBFF36F8FFEE700F0CBF9DFF866
:104AA000F4804FF000094FF0805748B9059838B1AD
:104AB000502080F31188BFF34F8FBFF36F8FFEE755
:104AC000FFF7E0FBA56BC5B151462046FFF78AF81A
:104AD0006D1EA563206950B104F1100000F0B2FA18
:104AE00028B1C8F80070BFF34F8FBFF36F8FFFF787
:104AF000E9FB012006B0BDE8F087059808B11EB1BA
:104B000006E0FFF7DFFB27E06846FFF7ABFC012676
:104B1000FFF7D8FBFFF78EFDFFF7B4FB94F94400D5
:104B2000401C01D184F8449094F94500401C01D107
:104B300084F84590FFF7C6FB05A9684600F0E8F841
:104B4000002820460AD0FFF7B1F900F0B5FA204658
:104B5000FFF77AF90028B3D00020CBE7FFF774F90C
:104B600090B104F124000599FFF78AFC2046FFF775
:104B70009DF900F0A1FA0028A2D1C8F80070BFF397
:104B80004F8FBFF36F8F9BE72046FFF78FF900F041
:104B900093FA95E704ED00E02DE9F343002683B096
:104BA0000400354609D0206C78B1502080F311887C
:104BB000BFF34F8FBFF36F8FFEE7502080F3118854
:104BC000BFF34F8FBFF36F8FFEE700F033F9DFF8CD
:104BD0003C814FF000094FF0805748B9049838B134
:104BE000502080F31188BFF34F8FBFF36F8FFEE724
:104BF000FFF748FBA06BC8B1401EA063206810B946
:104C0000FFF7F6F96060206950B104F1100000F080
:104C100019FA28B1C8F80070BFF34F8FBFF36F8F38
:104C2000FFF750FB012005B0BDE8F083049808B100
:104C300066B10FE03DB1502080F31188BFF34F8F74
:104C4000BFF36F8FFEE7FFF73DFB5DE06846FFF7C0
:104C500009FC0126FFF736FBFFF7ECFCFFF712FB20
:104C600094F94400401C01D184F8449094F9450023
:104C7000401C01D184F84590FFF724FB04A9684645
:104C800000F046F80028204612D0FFF70FF900F098
:104C900013FA2046FFF7D8F80028A9D09DB3FFF7F4
:104CA000F1FA606A50B3206B0068C0F1070126E09A
:104CB000FFF7CAF8E0B1206838B9FFF7E3FA606897
:104CC00000F076F90546FFF7FDFA04F12400049997
:104CD000FFF7D6FB2046FFF7E9F800F0EDF90028D2
:104CE00086D1C8F80070BFF34F8FBFF36F8F7FE797
:104CF0002046FFF7DBF800F0DFF979E70021606874
:104D0000FFF7D6FB9FE7FFE700208CE704ED00E00C
:104D10002DE9F0410C46050011D0C4B1FFF7B2FAFD
:104D2000174B5A696E682068911B471C17D02F6873
:104D30009B6A9F4219D0964217D8012410E0502058
:104D400080F31188BFF34F8FBFF36F8FFEE75020C2
:104D500080F31188BFF34F8FBFF36F8FFEE70024FE
:104D6000FFF7B0FA2046BDE8F081884205D9401A25
:104D700020602846FFF776FBF1E700202060DCE7A3
:104D8000880100202DE9FF5F8346DDE90E87994603
:104D900016468A469000FFF7BFF805001CD0542045
:104DA000FFF7BAF8040014D00020256384F85100FE
:104DB000CDE90240CDE900874B4632465146584680
:104DC000FEF7D5FF2046FEF7A5FE012004B0BDE8A2
:104DD000F09F2846FFF78AFA4FF0FF30F6E7F0B56C
:104DE00085B0DDE90B640A9DA6B1DCB154270097BC
:104DF0002663022684F85160002604AFCDE90246FE
:104E0000CDE90057FEF7B3FF2046FEF783FE049876
:104E100005B0F0BD502080F31188BFF34F8FBFF372
:104E20006F8FFEE7502080F31188BFF34F8FBFF3E1
:104E30006F8FFEE70548C16919B1806B18B100207A
:104E40007047012070470220704700008801002051
:104E50002DE9F0412E4C0027A06B40B1206A401C88
:104E60002062606A00B101273846BDE8F0816669BA
:104E7000761C666113D16068006838B1502080F3F9
:104E80001188BFF34F8FBFF36F8FFEE76068A16893
:104E90006160A060A06A401CA062FEF7E3FF206B87
:104EA000DFF87080864209D36068006880B160686E
:104EB000C068C568686886420DD220632068C06AF1
:104EC00000EB800158F821000128CAD90127C8E762
:104ED0004FF0FF30F1E7281DFFF784F9A86A18B1F9
:104EE00005F11800FFF77EF9E86A0121A269814007
:104EF0001143A16100EB800108EB8100291DFFF740
:104F0000B5F9E86A2168C96A8842CDD30127CBE7A1
:104F100088010020E404002070B504004FF0000177
:104F200040D0214D2868844207D0502080F311885A
:104F3000BFF34F8FBFF36F8FFEE7A06C38B1401EF9
:104F4000A064636CE26A9A422CD040B12AE05020FF
:104F500080F31188BFF34F8FBFF36F8FFEE7201DE3
:104F6000FFF740F9114A012150B9E06A00EB8003D4
:104F700052F8233023B9AB6901FA00F08343AB61E7
:104F8000606CE062C0F10700A061E06AAB6981403B
:104F90001943A96100EB800002EB8000211DFFF79F
:104FA00065F90121084670BD88010020E404002055
:104FB00070B504004FF0000038D0204DE16A2A6837
:104FC000D26A914233D2A069002804DB2868C06A03
:104FD000C0F10700A0611A4E01EB8101606906EB88
:104FE000810188421ED1201DFFF7FCF8012150B934
:104FF000E06A00EB800256F8222022B9AA6901FA81
:1050000000F08243AA612868C06AE062AA69814010
:105010001143A96100EB800006EB8000211DFFF722
:1050200025F902E02868C06AE062012070BD616C69
:105030002A68D26A9142F8D370BD0000880100202E
:10504000E40400202DE9F041C068C468ACB104F16B
:1050500018000746FFF7C6F8154DA86B0126A0B14A
:1050600039461448FFF702F9E06A2968C96A88429C
:105070001CD901206E62BDE8F081502080F31188B8
:10508000BFF34F8FBFF36F8FFEE7201DFFF7AAF826
:10509000E16AAA6906FA01F01043A86101EB8100F8
:1050A0000449B43901EB8000211DDBE70020E2E771
:1050B00088010020980500202DE9F0472C4D0024A0
:1050C0002746A86B38B1FFF7DDF8A86B401EA86330
:1050D000A86B40B146E0502080F31188BFF34F8F9A
:1050E000BFF36F8FFEE72969224E0120D1B3A6F1ED
:1050F000B40980463068E8B1F068C46804F118006B
:10510000FFF770F8201DFFF76DF8E06AAA6908FA4A
:1051100000F11143A96100EB800109EB8100211D21
:10512000FFF7A4F8E06A2968C96A8842E2D3C5F8A3
:105130002480DFE70CB1FEF795FE2C6A44B14646A9
:10514000FFF786FE00B16E62641EF9D1002028626E
:10515000686A38B10849012738070860BFF34F8FE4
:10516000BFF36F8FFFF7AEF83846BDE8F087000059
:10517000880100209805002004ED00E0F0510008AF
:10518000792D000800000000000000004000000031
:10519000000000000000000000000000000000000F
:1051A00001020304060708090000000001020304CD
:1051B00004FA97999999D93FAF788E1DC571CC3F64
:1051C0009FC678D0099AC33F935555555555E53F2D
:1051D000599322942449D23FDE03CB966446C73FBD
:1051E00044523EDF12F1C23F000000000000000008
:1051F00064656661756C745461736B001C520008C1
:1052000000000020EC01000054080008B85200081B
:10521000EC010020EC13000036340008211AFF01D5
:105220001015C0F9A4B0999282F880908883C6A125
:10523000868E8CC191C764FFBF8F05545001010158
:1052400013A50A42081AD1081AFD0413210B1B08E2
:1052500041041A69041A85041AA1041ABD04411AEA
:10526000E90813150C1B08450401181A711C5A890A
:10527000201AA1080A11B12C9ABD141AD50C0A11D2
:10528000E5241AF1144B090D181A21081A31041AD1
:105290003D045A5114419A5D0C1A750C1A85041A72
:1052A00091049AA5189AB10C011032018210035989
:0852B00024F41AAA0181000098
:04000005080000ED02
:00000001FF
